:020000040800F2
:1000000000000120A1020008F1020008F10200082E
:10001000F1020008F1020008F102000800000000EF
:10002000000000000000000000000000F1020008D5
:10003000F102000800000000F1020008F1020008CF
:10004000F1020008F1020008F1020008F1020008C4
:10005000F1020008F1020008F1020008F1020008B4
:10006000F1020008F1020008F1020008F1020008A4
:10007000F1020008F1020008F1020008F102000894
:10008000F1020008F1020008F1020008000000007F
:10009000000000000000000000000000F102000865
:1000A000F1020008F1020008F1020008F102000864
:1000B000F1020008F1020008F1020008F102000854
:1000C000F1020008F1020008F1020008F102000844
:1000D000F1020008F1020008F1020008000000002F
:1000E000F1020008F1020008F1020008000000001F
:1000F000000000000000000000000000F102000805
:1001000000000000F1020008F1020008F1020008FE
:1001100000000000000000000000000000000000DF
:10012000F1020008F1020008F1020008F1020008E3
:10013000F1020008000000000000000000000000C4
:10014000000000000000000000000000F1020008B4
:10015000F1020008F1020008F1020008F1020008B3
:10016000F1020008F1020008000000000000000099
:10017000000000000000000000000000000000007F
:1001800000000000F1020008000000000000000074
:04019000F102000870
:1001940010B5054C237833B9044B13B10448AFF3BD
:1001A40000800123237010BD000000200000000027
:1001B400E405000808B5034B1BB103490348AFF33A
:1001C400008008BD0000000004000020E4050008D1
:1001D40080B588B000AF264A3B1D07CA03C31A8006
:1001E4000023BB6108E0B96900230122412000F02B
:1001F4007FF8BB690133BB61BB69062BF3DD0023C8
:10020400FB7730E000237B611DE0FB7F07F12002D8
:10021400134413F81C3C1A467B6942FA03F303F0B7
:100224000103002B06D07B6901221946412000F00E
:1002340041F905E07B6900221946412000F03AF9B2
:100244007B6901337B617B69062BDEDD00233B6127
:1002540002E03B6901333B613B69064A9342F8DDA6
:10026400FB7F0133FB77FB7F092BCBD9C7E700BFAB
:10027400FC0500083F420F0080B400AF064BD3F8E2
:100284008830054A43F47003C2F8883000BFBD4685
:100294005DF8047B704700BF00ED00E0DFF834D068
:1002A4000D480E490E4A002302E0D458C4500433CA
:1002B400C4188C42F9D30B4A0B4C002301E01360A1
:1002C4000432A242FBD3FFF7D7FF00F065F9FFF732
:1002D4007FFF704700000120000000200000002084
:1002E40010060008000000201C000020FEE70000AB
:1002F40080B485B000AFB9607A603B600346FB739D
:10030400FB7B412B02D0422B64D0C7E0664B1B6BB6
:10031400654A43F0010313637B68032B3BD801A2B6
:1003240052F823F039030008530300086B03000854
:10033400830300085D4B1B68BA685200032101FA6D
:1003440002F2D2431146594A0B40136023E0574B43
:100354001B68BA685200012101FA02F21146534A9D
:100364000B43136017E0514B1B68BA68520002211B
:1003740001FA02F211464D4A0B4313600BE04B4B5A
:100384001B68BA685200032101FA02F21146474A77
:100394000B43136000BF3B68002B03D03B68012B69
:1003A4000CD07BE0414B5B680121BA6801FA02F290
:1003B400D24311463D4A0B4053600AE03B4B5B6815
:1003C4000121BA6801FA02F21146384A0B4353601C
:1003D40000BF63E0344B1B6B334A43F002031363E7
:1003E4007B68032B3BD801A252F823F001040008D8
:1003F4001B040008330400084B0400082C4B1B6842
:10040400BA685200032101FA02F2D2431146284A83
:100414000B40136023E0264B1B68BA68520001218D
:1004240001FA02F21146224A0B43136017E0204BF3
:100434001B68BA685200022101FA02F211461C4AF2
:100444000B4313600BE01A4B1B68BA68520003217C
:1004540001FA02F21146164A0B43136000BF3B68CF
:10046400002B03D03B68012B0CD016E0104B5B68CB
:100474000121BA6801FA02F2D24311460C4A0B4038
:1004840053600AE00A4B5B680121BA6801FA02F280
:100494001146074A0B43536000BF00BF00BF143727
:1004A400BD465DF8047B70470038024000000240FE
:1004B4000004024080B487B000AF0346B9607A609C
:1004C400FB73FB7B412B02D0422B2DD059E0304BE8
:1004D4001B68BA685200032101FA02F21A40BB6891
:1004E4005B0022FA03F3012B1BD17B68002B0AD09B
:1004F400274B5B690121BA6801FA02F21146244ACA
:100504000B4353610AE0224B5B690121BA6801FA8B
:1005140002F2D24311461E4A0B4053610023FB757D
:100524002FE00123FB752CE01A4B1B68BA685200BC
:10053400012101FA02F21A40BB685B0022FA03F3BC
:10054400002B1BD07B68002B0AD0124B5B69012166
:10055400BA6801FA02F211460E4A0B4353610AE0EB
:100564000C4B5B690121BA6801FA02F2D2431146CD
:10057400084A0B4053610023FB7501E00123FB751E
:1005840000BFFB7D18461C37BD465DF8047B7047F1
:10059400000002400004024070B50D4D0D4C641B78
:1005A400A4100026A64209D10B4D0C4C00F018F8FB
:1005B400641BA4100026A64205D170BD55F8043B67
:1005C40098470136EEE755F8043B98470136F2E7C1
:1005D4000806000808060008080600080C060008BB
:1005E400F8B500BFF8BC08BC9E467047F8B500BF1C
:0805F400F8BC08BC9E467047EC
:0C05FC003F065B4F666D7D077F6F0000BF
:04060800B90100082C
:04060C00950100084C
:04000005080002A14C
:00000001FF
