:020000040800F2
:1000000000000120110700086107000861070008CF
:100010006107000861070008610700080000000090
:100020000000000000000000000000006107000860
:100030006107000800000000610700086107000870
:1000400061070008610700086107000861070008F0
:1000500061070008610700086107000861070008E0
:1000600061070008610700086107000861070008D0
:1000700061070008610700086107000861070008C0
:100080006107000861070008610700080000000020
:1000900000000000000000000000000061070008F0
:1000A0006107000861070008610700086107000890
:1000B0006107000861070008610700086107000880
:1000C0006107000861070008610700086107000870
:1000D00061070008610700086107000800000000D0
:1000E00061070008610700086107000800000000C0
:1000F0000000000000000000000000006107000890
:10010000000000006107000861070008610700089F
:1001100000000000000000000000000000000000DF
:10012000610700086107000861070008610700080F
:10013000610700080000000000000000000000004F
:10014000000000000000000000000000610700083F
:1001500061070008610700086107000861070008DF
:1001600061070008610700080000000000000000AF
:10017000000000000000000000000000000000007F
:1001800000000000610700080000000000000000FF
:0401900061070008FB
:1001940010B5054C237833B9044B13B10448AFF3BD
:1001A40000800123237010BD6800002000000000BF
:1001B400AC07000808B5034B1BB103490348AFF370
:1001C400008008BD000000006C000020AC0700089F
:1001D40080B483B000AF0346FB71084B1B68FA7907
:1001E400012101FA02F21146044A0B43136000BFD5
:1001F4000C37BD465DF8047B704700BF30380240C1
:1002040090B482B000AF0446084611461A4623460D
:10021400FB710346BB710B467B7113463B71FA7944
:10022400564913469B001344DB000B441B681968B2
:10023400BB795B00032202FA03F3DB431C46FA7921
:100244004E4813469B001344DB0003441B6801EA39
:1002540004021A60FA79494913469B001344DB00EF
:100264000B441B6819687A79BB795B0002FA03F3C3
:100274001C46FA79414813469B001344DB000344AF
:100284001B6841EA04021A60FA793C4913469B0050
:100294001344DB000B4404331B681968BB79012247
:1002A40002FA03F3DB431C46FA79344813469B00F5
:1002B4001344DB00034404331B6801EA04021A609C
:1002C400FA792E4913469B001344DB000B44043394
:1002D4001B6819683B7903F00102BB7902FA03F346
:1002E4001C46FA79254813469B001344DB0003445B
:1002F40004331B6841EA04021A60FA791F49134661
:100304009B001344DB000B440C331B681968BB7956
:100314005B00032202FA03F3DB431C46FA79174815
:1003240013469B001344DB0003440C331B6801EAAF
:1003340004021A60FA79114913469B001344DB0046
:100344000B440C331B6819683B795B1003F0030200
:10035400BB795B0002FA03F31C46FA79074813469B
:100364009B001344DB0003440C331B6841EA040282
:100374001A6000BF0837BD4690BC704700000020DB
:1003840090B484B000AF0346FB710B46BB711346B7
:100394007B71FA792C4913469B001344DB000B4410
:1003A4001B681B68BA795200032101FA02F21A4051
:1003B400BB795B0022FA03F3012B3DD17B79002B3F
:1003C4001BD0FA79204913469B001344DB000B44ED
:1003D40014331B681968BB79012202FA03F31C4623
:1003E400FA79194813469B001344DB000344143381
:1003F4001B6841EA04021A601BE0FA7912491346A9
:100404009B001344DB000B4414331B681968BB794D
:10041400012202FA03F3DB431C46FA790A48134625
:100424009B001344DB00034414331B6801EA0402F9
:100434001A600023FB7301E00123FB73FB7B184666
:100444001037BD4690BC70470000002080B485B0D2
:1004540000AF03460A46FB711346BB710023FB73CE
:10046400FA79164913469B001344DB000B441033FE
:100474001B681B68BA79012101FA02F21A40BB79A0
:1004840022FA03F3FB73FA790C4913469B001344D5
:10049400DB000B4410331B681B68BA79012101FA95
:1004A40002F21A40BB7922FA03F3FB73FB7B184672
:1004B4001437BD465DF8047B704700BF0000002080
:1004C40080B500AF0023012200210120FFF798FE30
:1004D4000023012201210120FFF792FE00230122C3
:1004E40002210120FFF78CFE0223002203210120B8
:1004F400FFF786FE0223002204210120FFF780FE7D
:100504000223002205210120FFF77AFE02230022A4
:1005140006210120FFF774FE00BF80BD80B582B0C4
:1005240000AF2F4B1B78002B56D10023BB7150E03A
:10053400012200210120FFF723FF012201210120D4
:10054400FFF71EFF012202210120FFF719FFBB79EB
:10055400002219460120FFF713FF0323FB7132E049
:10056400FB7919460120FFF771FF03467B711D4B90
:1005740000221A6004E01B4B1B680133194A136004
:10058400184B1B68B3F57A7FF5DBFB79194601201C
:10059400FFF75CFF03467B717B79002B10D1104B76
:1005A40001221A70FB79DA1EB9790F4813465B00F1
:1005B400134403440B441A780C4B1A7000F052F89D
:1005C400FB790133FB71FB79062BC9D9BB79013364
:1005D400BB71BB79022BABD900BF0837BD4680BDC8
:1005E4008400002088000020500000208C0000209F
:1005F40080B400AF074B1B78012B05D1054B0022BB
:100604001A70054B1B7800E0FF231846BD465DF8C1
:10061400047B7047840000208C00002080B500AF6C
:100624000020FFF7D5FD0120FFF7D2FD0C4B00227F
:100634001A600CE00A4B1B68D9B200230122002087
:10064400FFF7DEFD064B1B680133054A1360044BBC
:100654001B68062BEEDDFFF733FFFFF75FFFFCE7B8
:100664009400002080B500AFFFF7C2FF03461A468E
:100674001A4B1A701A4B00221A6028E0174B1B7889
:100684001A46184B9B5C1946154B1B68012202FA4B
:1006940003F301EA0302124B1B6842FA03F3002B33
:1006A40008D00F4B1B68DBB2012219460020FFF76C
:1006B40067FE07E00A4B1B68DBB2002219460020E4
:1006C400FFF75EFE064B1B680133054A1360044BBB
:1006D4001B68062BD2DD00BF00BF80BD9800002040
:1006E400900000205C00002080B400AF064BD3F8DB
:1006F4008830054A43F47003C2F8883000BFBD4611
:100704005DF8047B704700BF00ED00E0DFF834D0F3
:100714000D480E490E4A002302E0D458C450043355
:10072400C4188C42F9D30B4A0B4C002301E013602C
:100734000432A242FBD3FFF7D7FF00F011F8FFF712
:100744006DFF7047000001200000002068000020B9
:10075400CC070008680000209C000020FEE7000091
:1007640070B50D4D0D4C641BA4100026A64209D192
:100774000B4D0C4C00F018F8641BA4100026A64284
:1007840005D170BD55F8043B98470136EEE755F89E
:10079400043B98470136F2E7C4070008C407000881
:1007A400C4070008C8070008F8B500BFF8BC08BCB7
:1007B4009E467047F8B500BFF8BC08BC9E4670471B
:0407C400B90100086F
:0407C800950100088F
:1007CC000000024004000240080002400C000240FD
:1007DC001000024014000240180002401C000240AD
:1007EC0020000240240002400004024004040240A5
:1007FC00080402400C04024010040240140402409D
:10080C00180402401C04024020040240240402404C
:10081C000102030405060708090000003F065B4FB0
:08082C00666D7D077F6F00007F
:0400000508000711D7
:00000001FF
