:020000040800F2
:1000000000000120D9060008290700082907000878
:100010002907000829070008290700080000000038
:100020000000000000000000000000002907000898
:100030002907000800000000290700082907000818
:1000400029070008290700082907000829070008D0
:100050002907000829070008DD0500081D0600081B
:1000600029070008290700082907000829070008B0
:1000700029070008290700082907000829070008A0
:1000800029070008290700082907000800000000C8
:100090000000000000000000000000002907000828
:1000A0002907000829070008290700082907000870
:1000B0002907000829070008290700082907000860
:1000C0002907000829070008290700082907000850
:1000D0002907000829070008290700080000000078
:1000E0002907000829070008290700080000000068
:1000F00000000000000000000000000029070008C8
:100100000000000029070008290700082907000847
:1001100000000000000000000000000000000000DF
:1001200029070008290700082907000829070008EF
:100130002907000800000000000000000000000087
:100140000000000000000000000000002907000877
:1001500029070008290700082907000829070008BF
:10016000290700082907000800000000000000001F
:10017000000000000000000000000000000000007F
:100180000000000029070008000000000000000037
:040190002907000833
:1001940010B5054C237833B9044B13B10448AFF3BD
:1001A40000800123237010BD5C00002000000000CB
:1001B4007407000808B5034B1BB103490348AFF3A8
:1001C400008008BD000000006000002074070008E3
:1001D40080B483B000AF0346FB71084B1B68FA7907
:1001E400012101FA02F21146044A0B43136000BFD5
:1001F4000C37BD465DF8047B704700BF44380240AD
:1002040080B483B000AF0346FB71084B1B68FA79D6
:10021400012101FA02F21146044A0B43136000BFA4
:100224000C37BD465DF8047B704700BF3038024090
:1002340090B482B000AF0446084611461A462346DD
:10024400FB710346BB710B467B7113463B71FA7914
:10025400564913469B001344DB000B441B68196882
:10026400BB795B00032202FA03F3DB431C46FA79F1
:100274004E4813469B001344DB0003441B6801EA09
:1002840004021A60FA79494913469B001344DB00BF
:100294000B441B6819687A79BB795B0002FA03F393
:1002A4001C46FA79414813469B001344DB0003447F
:1002B4001B6841EA04021A60FA793C4913469B0020
:1002C4001344DB000B4404331B681968BB79012217
:1002D40002FA03F3DB431C46FA79344813469B00C5
:1002E4001344DB00034404331B6801EA04021A606C
:1002F400FA792E4913469B001344DB000B44043364
:100304001B6819683B7903F00102BB7902FA03F315
:100314001C46FA79254813469B001344DB0003442A
:1003240004331B6841EA04021A60FA791F49134630
:100334009B001344DB000B440C331B681968BB7926
:100344005B00032202FA03F3DB431C46FA791748E5
:1003540013469B001344DB0003440C331B6801EA7F
:1003640004021A60FA79114913469B001344DB0016
:100374000B440C331B6819683B795B1003F00302D0
:10038400BB795B0002FA03F31C46FA79074813466B
:100394009B001344DB0003440C331B6841EA040252
:1003A4001A6000BF0837BD4690BC704700000020AB
:1003B40090B484B000AF0346FB710B46BB71134687
:1003C4007B71FA792C4913469B001344DB000B44E0
:1003D4001B681B68BA795200032101FA02F21A4021
:1003E400BB795B0022FA03F3012B3DD17B79002B0F
:1003F4001BD0FA79204913469B001344DB000B44BD
:1004040014331B681968BB79012202FA03F31C46F2
:10041400FA79194813469B001344DB000344143350
:100424001B6841EA04021A601BE0FA791249134678
:100434009B001344DB000B4414331B681968BB791D
:10044400012202FA03F3DB431C46FA790A481346F5
:100454009B001344DB00034414331B6801EA0402C9
:100464001A600023FB7301E00123FB73FB7B184636
:100474001037BD4690BC70470000002080B582B0A4
:1004840000AF0020FFF7BCFE0120FFF7B9FE0E20ED
:10049400FFF79EFE0223002200210020FFF7C8FE82
:1004A4000223002201210020FFF7C2FE254B002277
:1004B4001A600CE0234B1B68D9B2002301220120EF
:1004C400FFF7B6FE1F4B1B6801331E4A13601D4B1A
:1004D4001B68062BEEDD1C4B1B681B4A23F00F0325
:1004E4001360194B1B68184A23F0F0031360174B71
:1004F4001B68164A43F001031360144B1B68134A2C
:1005040043F002031360124B1B68114A43F00103CA
:1005140013600F4B1B680E4A43F0020313600D4B2C
:1005240040221A600B4B80221A6000F095F80A4BA7
:100534001B78FB7100F0A6F8FB79184600F00EF862
:10054400F3E700BF80000020083801400C3C014064
:10055400003C014000E100E07800002080B582B05A
:1005640000AF0346FB711A4B00221A6026E0FB79A8
:10057400184AD35C1946164B1B68012202FA03F38E
:1005840001EA0302124B1B6842FA03F3002B08D062
:100594000F4B1B68DBB2012219460120FFF708FF4D
:1005A40007E00B4B1B68DBB2002219460120FFF762
:1005B400FFFE074B1B680133054A1360044B1B689D
:1005C400062BD4DD00BF00BF0837BD4680BD00BF89
:1005D4007C0000205000002080B400AF0C4B1B783E
:1005E400092B03D10A4B09221A7005E0084B1B782A
:1005F4000133DAB2064B1A70064B1B68054A43F006
:100604000103136000BFBD465DF8047B704700BF63
:1006140078000020143C014080B400AF0C4B1B78E0
:10062400002B03D10A4B00221A7005E0084B1B78FB
:10063400013BDAB2064B1A70064B1B68054A43F0BD
:100644000203136000BFBD465DF8047B704700BF22
:1006540078000020143C014080B400AF084B1B68B4
:10066400074A23F00F031360054B1B68044A23F069
:100674001E03136000BFBD465DF8047B704700BFD6
:10068400003C014080B400AF084B1B68074A43F0AC
:1006940001031360054B1B68044A43F00203136013
:1006A40000BFBD465DF8047B704700BF003C0140BD
:1006B40080B400AF064BD3F88830054A43F4700386
:1006C400C2F8883000BFBD465DF8047B704700BFA8
:1006D40000ED00E0DFF834D00D480E490E4A002347
:1006E40002E0D458C4500433C4188C42F9D30B4AE2
:1006F4000B4C002301E013600432A242FBD3FFF74A
:10070400D7FF00F011F8FFF7B9FE70470000012091
:10071400000000205C000020940700085C0000201A
:1007240084000020FEE7000070B50D4D0D4C641BE5
:10073400A4100026A64209D10B4D0C4C00F018F869
:10074400641BA4100026A64205D170BD55F8043BD5
:1007540098470136EEE755F8043B98470136F2E72F
:100764008C0700088C0700088C0700089007000815
:10077400F8B500BFF8BC08BC9E467047F8B500BF8A
:08078400F8BC08BC9E4670475A
:04078C00B9010008A7
:0407900095010008C7
:100794000000024004000240080002400C00024035
:1007A4001000024014000240180002401C000240E5
:1007B40020000240240002400004024004040240DD
:1007C400080402400C0402401004024014040240D5
:1007D400180402401C040240200402402404024085
:0C07E4003F065B4F666D7D077F6F0000D5
:04000005080006D910
:00000001FF
