:020000040800F2
:1000000060060020190200082102000823020008EF
:10001000250200082702000829020008000000004D
:100020000000000000000000000000002B0200089B
:100030002D020008000000002F0200083102000815
:1000400033020008330200083302000833020008BC
:1000500033020008330200083302000833020008AC
:10006000330200083302000833020008330200089C
:10007000330200083302000833020008330200088C
:1000800033020008330200083302000800000000B9
:100090000000000000000000000000003302000823
:1000A000330200083302000833020008330200085C
:1000B000330200083302000833020008330200084C
:1000C000330200083302000833020008330200083C
:1000D0003302000833020008330200080000000069
:1000E0003302000833020008330200080000000059
:1000F00000000000000000000000000033020008C3
:100100000000000033020008330200083302000838
:1001100000000000000000000000000000000000DF
:1001200033020008330200083302000833020008DB
:100130003302000800000000000000000000000082
:100140000000000000000000000000003302000872
:1001500033020008330200083302000833020008AB
:100160003302000833020008000000000000000015
:10017000000000000000000000000000000000007F
:100180000000000033020008000000000000000032
:100190003302000800F002F800F02EF80AA090E800
:1001A000000C82448344AAF10107DA4501D100F032
:1001B00023F8AFF2090EBAE80F0013F0010F18BFD1
:1001C000FB1A43F001031847A8030000B80300001E
:1001D0000023002400250026103A28BF78C1FBD850
:1001E000520728BF30C148BF0B6070471FB500F0F1
:1001F000B1F91FBD10B510BD00F031F81146FFF781
:10020000F5FF00F08BF900F04FF803B4FFF7F2FFB1
:1002100003BC00F057F80000094880470948004730
:10022000FEE7FEE7FEE7FEE7FEE7FEE7FEE7FEE7A6
:10023000FEE7FEE704480549054A064B7047000003
:1002400001050008950100086000002060060020FC
:1002500060020020600200207047704770477546BA
:1002600000F02CF8AE4605006946534620F0070022
:10027000854618B020B5FFF7DDFFBDE820404FF000
:1002800000064FF000074FF000084FF0000BAC469F
:10029000ACE8C009ACE8C009ACE8C009ACE8C009EA
:1002A00021F007018D46704710B50446AFF300807A
:1002B0002046BDE81040FFF7A8BF00000048704787
:1002C0000000002001491820ABBEFEE72600020016
:1002D0007047000080B586B0002043F630010190E1
:1002E000C4F202010A6842F001020A60096801F0E2
:1002F00001010191019902900120019002200390D7
:100300000020C4F2020001A900F002F806B080BD8E
:100310002DE9F04F83B000F13E4202F1FF7243F647
:10032000004E4FEAB22241F20007C4F2010E0192E0
:10033000C4F2020707224FF0010B00254FF000081E
:100340004FF00009B84208BF042200920AE000BF43
:1003500009F1010908F10408B9F1100F05F10205CE
:1003600000F0A0800F680BFA09F417EA040CEFD034
:10037000D1F804A0BAF1120F15D80BFA0AF717F04A
:10038000061F10D087680322CE68AA4027EA02021F
:10039000AE40324382604268A243CAF3001404FABA
:1003A00009F422434260C26803238C6803FA05FB08
:1003B00022EA0B02AC4022434AF01004122CC26025
:1003C0000FD16FF0030202EA5902024408F01C0642
:1003D0000F23146A03FA06F70B69BC43B3402343A7
:1003E000136203684C686FEA0B021A4004F00303BF
:1003F000AB401A43E3004FF0010B0260A8D5002286
:1004000043F644030292C4F202031A684FF6084A04
:1004100042F480421A601A68CFF6FF7A02F48042F2
:100420000292029A29F00302724452F80A3008F04C
:100430000C040F26A640019FB343009E042F38BF33
:100440003E4606FA04F4234342F80A30DEF8002060
:100450004B6842EA0C04DE0358BF22EA0C04CEF8D3
:100460000040DEF804209E0342EA0C0458BF22EA52
:100470000C04CEF80440DEF80820DE0242EA0C0448
:1004800058BF22EA0C04CEF8084043F60C44C4F2EC
:10049000010422689B0242EA0C0358BF22EA0C03C3
:1004A000236055E703B0BDE8F08F00000069084005
:1004B00018BF012070470000002A08BF09048161AD
:1004C0007047000080B586B00020019043F63000F0
:1004D000C4F20200016841F002010160006801A954
:1004E00000F0020001900198012002900420019088
:1004F00040F20040C4F20200FFF70AFF06B080BDE0
:100500004EF68850CEF20000016841F4700101609F
:100510004FF0006140F8801C7047000040F200443A
:10052000C4F20204FFF7CEFFFFF7D4FE05E000BFE0
:10053000204604210122FFF7BFFF20460121FFF7DB
:10054000B5FF0028F4D1204641F204010022FFF754
:10055000B3FFF2E7F1EE100A4FF6FF71C0F2C031BF
:1005600020EA010040F04070E1EE100A7047000000
:10057000800500080000002060060000D00100088F
:0400000508000219D4
:00000001FF
