:020000040800F2
:1000000000000120FD0200084D0300084D03000818
:100010004D0300084D0300084D03000800000000D8
:100020000000000000000000000000004D03000878
:100030004D030008000000004D0300084D030008B8
:100040004D0300084D0300084D0300084D03000850
:100050004D0300084D0300084D0300084D03000840
:100060004D0300084D0300084D0300084D03000830
:100070004D0300084D0300084D0300084D03000820
:100080004D0300084D0300084D0300080000000068
:100090000000000000000000000000004D03000808
:1000A0004D0300084D0300084D0300084D030008F0
:1000B0004D0300084D0300084D0300084D030008E0
:1000C0004D0300084D0300084D0300084D030008D0
:1000D0004D0300084D0300084D0300080000000018
:1000E0004D0300084D0300084D0300080000000008
:1000F0000000000000000000000000004D030008A8
:10010000000000004D0300084D0300084D030008E7
:1001100000000000000000000000000000000000DF
:100120004D0300084D0300084D0300084D0300086F
:100130004D03000800000000000000000000000067
:100140000000000000000000000000004D03000857
:100150004D0300084D0300084D0300084D0300083F
:100160004D0300084D0300080000000000000000DF
:10017000000000000000000000000000000000007F
:10018000000000004D030008000000000000000017
:040190004D03000813
:1001940010B5054C237833B9044B13B10448AFF3BD
:1001A40000800123237010BD000000200000000027
:1001B400F006000808B5034B1BB103490348AFF32D
:1001C400008008BD0000000004000020F0060008C4
:1001D400B0B58EB000AF002301220521422000F00B
:1001E400B5F8002301220621422000F0AFF80023D5
:1001F40001220721422000F0A9F801230022032153
:10020400422000F0A3F8314B3C1D1D460FCD0FC416
:1002140095E80F0084E80F000321422000F014FA4F
:100224000346BB6200233B6302E03B6B01333B6349
:100234003B6B42F20F729342F7DD0321422000F040
:1002440003FA03467B6297F83730082B02D1002368
:1002540087F83730BB6A012BDED17B6A002BDBD1F8
:1002640000233B6302E03B6B01333B633B6B184A67
:100274009342F8DD0523FB621EE097F837309B00BC
:1002840007F13802134453F8343C0121FA6A01FAA5
:1002940002F21340002B06D0FB6A012219464220C9
:1002A40000F060F905E0FB6A00221946422000F0E4
:1002B40059F9FB6A0133FB62FB6A072BDDDD97F812
:1002C4003730013387F83730A6E700BF0807000846
:1002D4009F86010080B400AF064BD3F88830054AEE
:1002E40043F47003C2F8883000BFBD465DF8047B58
:1002F400704700BF00ED00E0DFF834D00D480E4930
:100304000E4A002302E0D458C4500433C4188C426B
:10031400F9D30B4A0B4C002301E013600432A242D0
:10032400FBD3FFF7D7FF00F0BDF9FFF751FF70478C
:100334000000012000000020000000203007000819
:10034400000000201C000020FEE7000080B485B0FF
:1003540000AFB9607A603B600346FB73FB7B412BC3
:1003640002D0422B78D0F1E07B4B1B6B7A4A43F0EE
:10037400010313637B68032B3BD801A252F823F0DB
:1003840095030008AF030008C7030008DF03000853
:10039400724B1B68BA685200032101FA02F2D2437D
:1003A40011466E4A0B40136023E06C4B1B68BA681D
:1003B4005200012101FA02F21146684A0B4313600C
:1003C40017E0664B1B68BA685200022101FA02F278
:1003D4001146624A0B4313600BE0604B1B68BA681A
:1003E4005200032101FA02F211465C4A0B431360E6
:1003F40000BF3B68022B22D03B68022B00F2A38093
:100404003B68002B03D03B68012B0CD09BE0534B83
:100414005B680121BA6801FA02F2D24311464F4ADD
:100424000B40536017E04D4BDB68BA685200012162
:1004340001FA02F21146494A0B43D3600BE0474BE1
:10044400DB68BA685200022101FA02F21146434AFB
:100454000B43D36000BF76E03F4B1B6B3E4A43F037
:10046400020313637B68032B3BD801A252F823F0E9
:10047400850400089F040008B7040008CF0400089E
:10048400374B1B68BA685200032101FA02F2D243C7
:100494001146334A0B40136023E0314B1B68BA68A2
:1004A4005200012101FA02F211462D4A0B43136056
:1004B40017E02B4B1B68BA685200022101FA02F2C2
:1004C4001146274A0B4313600BE0254B1B68BA689F
:1004D4005200032101FA02F21146214A0B43136030
:1004E40000BF3B68022B21D03B68022B2DD83B6810
:1004F400002B03D03B68012B0CD026E0184B5B6823
:100504000121BA6801FA02F2D2431146144A0B409F
:10051400536017E0124BDB68BA685200012101FAFC
:1005240002F211460E4A0B43D3600BE00C4BDB681E
:10053400BA685200022101FA02F21146084A0B433A
:10054400D36000BF01E000BF00E000BF00BF14376C
:10055400BD465DF8047B704700380240000002404D
:100564000004024080B487B000AF0346B9607A60EB
:10057400FB73FB7B412B02D0422B2DD059E0304B37
:100584001B68BA685200032101FA02F21A40BB68E0
:100594005B0022FA03F3012B1BD17B68002B0AD0EA
:1005A400274B5B690121BA6801FA02F21146244A19
:1005B4000B4353610AE0224B5B690121BA6801FADB
:1005C40002F2D24311461E4A0B4053610023FB75CD
:1005D4002FE00123FB752CE01A4B1B68BA6852000C
:1005E400032101FA02F21A40BB685B0022FA03F30A
:1005F400012B1BD17B68002B0AD0124B5B690121B4
:10060400BA6801FA02F211460E4A0B4353610AE03A
:100614000C4B5B690121BA6801FA02F2D24311461C
:10062400084A0B4053610023FB7501E00123FB756D
:1006340000BFFB7D18461C37BD465DF8047B704740
:10064400000002400004024080B483B000AF0346BF
:100654003960FB71FB79412B02D0422B0CD017E09F
:100664000E4B1B6901213A6801FA02F21A403B68F9
:1006740022FA03F3DBB20BE0094B1B6901213A6850
:1006840001FA02F21A403B6822FA03F3DBB2FFE7F5
:1006940018460C37BD465DF8047B704700000240E5
:1006A4000004024070B50D4D0D4C641BA4100026CF
:1006B400A64209D10B4D0C4C00F018F8641BA41091
:1006C4000026A64205D170BD55F8043B9847013673
:1006D400EEE755F8043B98470136F2E7280700088F
:1006E40028070008280700082C070008F8B500BFF1
:1006F400F8BC08BC9E467047F8B500BFF8BC08BCFF
:040704009E46704756
:10070800200000006000000040000000C000000061
:1007180080000000E0000000A000000000000000D1
:04072800B90100080B
:04072C00950100082B
:04000005080002FDF0
:00000001FF
