:020000040800F2
:100000000000012041050008910500089105000845
:100010009105000891050008910500080000000006
:100020000000000000000000000000009105000832
:1000300091050008000000009105000891050008E6
:100040009105000891050008910500089105000838
:100050009105000891050008E504000891050008D5
:100060009105000891050008910500089105000818
:100070009105000891050008910500089105000808
:100080009105000891050008910500080000000096
:1000900000000000000000000000000091050008C2
:1000A00091050008910500089105000891050008D8
:1000B00091050008910500089105000891050008C8
:1000C00091050008910500089105000891050008B8
:1000D0009105000891050008910500080000000046
:1000E0009105000891050008910500080000000036
:1000F0000000000000000000000000009105000862
:100100000000000091050008910500089105000815
:1001100000000000000000000000000000000000DF
:100120009105000891050008910500089105000857
:100130009105000800000000000000000000000021
:100140000000000000000000000000009105000811
:100150009105000891050008910500089105000827
:100160009105000891050008000000000000000053
:10017000000000000000000000000000000000007F
:1001800000000000910500080000000000000000D1
:0401900091050008CD
:1001940010B5054C237833B9044B13B10448AFF3BD
:1001A40000800123237010BD5000002000000000D7
:1001B400DC05000808B5034B1BB103490348AFF342
:1001C400008008BD0000000054000020DC05000889
:1001D40080B483B000AF0346FB71084B1B68FA7907
:1001E400012101FA02F21146044A0B43136000BFD5
:1001F4000C37BD465DF8047B704700BF44380240AD
:1002040080B483B000AF0346FB71084B1B68FA79D6
:10021400012101FA02F21146044A0B43136000BFA4
:100224000C37BD465DF8047B704700BF3038024090
:1002340090B482B000AF0446084611461A462346DD
:10024400FB710346BB710B467B7113463B71FA7914
:10025400564913469B001344DB000B441B68196882
:10026400BB795B00032202FA03F3DB431C46FA79F1
:100274004E4813469B001344DB0003441B6801EA09
:1002840004021A60FA79494913469B001344DB00BF
:100294000B441B6819687A79BB795B0002FA03F393
:1002A4001C46FA79414813469B001344DB0003447F
:1002B4001B6841EA04021A60FA793C4913469B0020
:1002C4001344DB000B4404331B681968BB79012217
:1002D40002FA03F3DB431C46FA79344813469B00C5
:1002E4001344DB00034404331B6801EA04021A606C
:1002F400FA792E4913469B001344DB000B44043364
:100304001B6819683B7903F00102BB7902FA03F315
:100314001C46FA79254813469B001344DB0003442A
:1003240004331B6841EA04021A60FA791F49134630
:100334009B001344DB000B440C331B681968BB7926
:100344005B00032202FA03F3DB431C46FA791748E5
:1003540013469B001344DB0003440C331B6801EA7F
:1003640004021A60FA79114913469B001344DB0016
:100374000B440C331B6819683B795B1003F00302D0
:10038400BB795B0002FA03F31C46FA79074813466B
:100394009B001344DB0003440C331B6841EA040252
:1003A4001A6000BF0837BD4690BC704700000020AB
:1003B40090B484B000AF0346FB710B46BB71134687
:1003C4007B71FA792C4913469B001344DB000B44E0
:1003D4001B681B68BA795200032101FA02F21A4021
:1003E400BB795B0022FA03F3012B3DD17B79002B0F
:1003F4001BD0FA79204913469B001344DB000B44BD
:1004040014331B681968BB79012202FA03F31C46F2
:10041400FA79194813469B001344DB000344143350
:100424001B6841EA04021A601BE0FA791249134678
:100434009B001344DB000B4414331B681968BB791D
:10044400012202FA03F3DB431C46FA790A481346F5
:100454009B001344DB00034414331B6801EA0402C9
:100464001A600023FB7301E00123FB73FB7B184636
:100474001037BD4690BC70470000002080B500AF27
:100484000020FFF7BDFE0E20FFF7A2FE022300228C
:1004940000210020FFF7CCFE0023012207210020C9
:1004A400FFF7C6FE0A4B1B68094A43F001031360B9
:1004B400084B1B68074A43F001031360064B1B6893
:1004C400054A23F00F031360044B40221A60FEE731
:1004D400003C01400C3C01400838014000E100E0D0
:1004E40080B500AF0A4B1B78DB43DAB2084B1A70B5
:1004F400074B1B781A4607210020FFF759FF054BCD
:100504001B68044A43F00103136000BF80BD00BFB1
:100514006C000020143C014080B400AF064BD3F8BB
:100524008830054A43F47003C2F8883000BFBD46E2
:100534005DF8047B704700BF00ED00E0DFF834D0C5
:100544000D480E490E4A002302E0D458C450043327
:10055400C4188C42F9D30B4A0B4C002301E01360FE
:100564000432A242FBD3FFF7D7FF00F011F8FFF7E4
:1005740085FF70470000012000000020500000208B
:10058400FC0500085000002070000020FEE7000079
:1005940070B50D4D0D4C641BA4100026A64209D164
:1005A4000B4D0C4C00F018F8641BA4100026A64256
:1005B40005D170BD55F8043B98470136EEE755F870
:1005C400043B98470136F2E7F4050008F4050008F7
:1005D400F4050008F8050008F8B500BFF8BC08BC2D
:1005E4009E467047F8B500BFF8BC08BC9E467047ED
:0405F400B901000841
:0405F8009501000861
:1005FC000000024004000240080002400C000240CF
:10060C001000024014000240180002401C0002407E
:10061C002000024024000240000402400404024076
:10062C00080402400C04024010040240140402406E
:10063C00180402401C04024020040240240402401E
:0400000508000541A9
:00000001FF
