:020000040800F2
:1000000000000120D5020008250300082503000890
:100010002503000825030008250300080000000050
:1000200000000000000000000000000025030008A0
:100030002503000800000000250300082503000830
:1000400025030008250300082503000825030008F0
:1000500025030008250300082503000825030008E0
:1000600025030008250300082503000825030008D0
:1000700025030008250300082503000825030008C0
:1000800025030008250300082503000800000000E0
:100090000000000000000000000000002503000830
:1000A0002503000825030008250300082503000890
:1000B0002503000825030008250300082503000880
:1000C0002503000825030008250300082503000870
:1000D0002503000825030008250300080000000090
:1000E0002503000825030008250300080000000080
:1000F00000000000000000000000000025030008D0
:10010000000000002503000825030008250300085F
:1001100000000000000000000000000000000000DF
:10012000250300082503000825030008250300080F
:10013000250300080000000000000000000000008F
:10014000000000000000000000000000250300087F
:1001500025030008250300082503000825030008DF
:10016000250300082503000800000000000000002F
:10017000000000000000000000000000000000007F
:10018000000000002503000800000000000000003F
:04019000250300083B
:1001940010B5054C237833B9044B13B10448AFF3BD
:1001A40000800123237010BD000000200000000027
:1001B4007003000808B5034B1BB103490348AFF3B0
:1001C400008008BD00000000040000207003000847
:1001D400B0B48DB000AF0023BB62304B1B6B2F4A11
:1001E40043F0020313632E4B1B682D4A23F47C4314
:1001F40023F0C00313602A4B1B68294A43F4A84325
:100204001360274B5B68264A23F0E0035360244BBA
:100214001B68234A23F0C0031360224B3C461D464F
:100224000FCD0FC495E80F0084E80F001C4B1B6929
:100234007B620023FB6202E0FB6A0133FB62FB6A20
:1002440042F20F729342F7DD154B1B693B62BB6AA6
:10025400082B01D10023BB62114B1B6903F0080377
:10026400002BE3D07A6A3B6A9A42DFD00C4ABB6A1D
:100274009B0007F130010B4453F8303C53610023D9
:10028400FB6202E0FB6A0133FB62FB6A064A9342AB
:10029400F8DDBB6A0133BB62C8E700BF0038024027
:1002A40000040240880300089F86010080B400AF68
:1002B400064BD3F88830054A43F47003C2F88830FB
:1002C40000BFBD465DF8047B704700BF00ED00E051
:1002D400DFF834D00D480E490E4A002302E0D4580A
:1002E400C4500433C4188C42F9D30B4A0B4C00237A
:1002F40001E013600432A242FBD3FFF7D7FF00F002
:1003040011F8FFF765FF704700000120000000208E
:1003140000000020B0030008000000201C000020A2
:10032400FEE7000070B50D4D0D4C641BA4100026B3
:10033400A64209D10B4D0C4C00F018F8641BA41014
:100344000026A64205D170BD55F8043B98470136F6
:10035400EEE755F8043B98470136F2E7A803000896
:10036400A8030008A8030008AC030008F8B500BF00
:10037400F8BC08BC9E467047F8B500BFF8BC08BC82
:040384009E467047DA
:10038800200000006000000040000000C0000000E5
:1003980080000000E0000000A00000000000000055
:0403A800B90100088F
:0403AC0095010008AF
:04000005080002D518
:00000001FF
