:020000040800F2
:100000000000012095040008E5040008E50400084C
:10001000E5040008E5040008E5040008000000000D
:10002000000000000000000000000000E5040008DF
:10003000E504000800000000E5040008E5040008ED
:10004000E5040008E5040008E5040008E5040008EC
:10005000E5040008E5040008E5040008E5040008DC
:10006000E5040008E5040008E5040008E5040008CC
:10007000E5040008E5040008E5040008E5040008BC
:10008000E5040008E5040008E5040008000000009D
:10009000000000000000000000000000E50400086F
:1000A000E5040008E5040008E5040008E50400088C
:1000B000E5040008E5040008E5040008E50400087C
:1000C000E5040008E5040008E5040008E50400086C
:1000D000E5040008E5040008E5040008000000004D
:1000E000E5040008E5040008E5040008000000003D
:1000F000000000000000000000000000E50400080F
:1001000000000000E5040008E5040008E50400081C
:1001100000000000000000000000000000000000DF
:10012000E5040008E5040008E5040008E50400080B
:10013000E5040008000000000000000000000000CE
:10014000000000000000000000000000E5040008BE
:10015000E5040008E5040008E5040008E5040008DB
:10016000E5040008E50400080000000000000000AD
:10017000000000000000000000000000000000007F
:1001800000000000E504000800000000000000007E
:04019000E50400087A
:1001940010B5054C237833B9044B13B10448AFF3BD
:1001A40000800123237010BD5000002000000000D7
:1001B4003005000808B5034B1BB103490348AFF3EE
:1001C400008008BD00000000540000203005000835
:1001D40080B483B000AF0346FB71084B1B68FA7907
:1001E400012101FA02F21146044A0B43136000BFD5
:1001F4000C37BD465DF8047B704700BF30380240C1
:1002040090B482B000AF0446084611461A4623460D
:10021400FB710346BB710B467B7113463B71FA7944
:10022400564913469B001344DB000B441B681968B2
:10023400BB795B00032202FA03F3DB431C46FA7921
:100244004E4813469B001344DB0003441B6801EA39
:1002540004021A60FA79494913469B001344DB00EF
:100264000B441B6819687A79BB795B0002FA03F3C3
:100274001C46FA79414813469B001344DB000344AF
:100284001B6841EA04021A60FA793C4913469B0050
:100294001344DB000B4404331B681968BB79012247
:1002A40002FA03F3DB431C46FA79344813469B00F5
:1002B4001344DB00034404331B6801EA04021A609C
:1002C400FA792E4913469B001344DB000B44043394
:1002D4001B6819683B7903F00102BB7902FA03F346
:1002E4001C46FA79254813469B001344DB0003445B
:1002F40004331B6841EA04021A60FA791F49134661
:100304009B001344DB000B440C331B681968BB7956
:100314005B00032202FA03F3DB431C46FA79174815
:1003240013469B001344DB0003440C331B6801EAAF
:1003340004021A60FA79114913469B001344DB0046
:100344000B440C331B6819683B795B1003F0030200
:10035400BB795B0002FA03F31C46FA79074813469B
:100364009B001344DB0003440C331B6841EA040282
:100374001A6000BF0837BD4690BC704700000020DB
:1003840080B485B000AF78600023FB730FE0FB7B83
:100394007A6813441A780C4B1A6000BF0B4B1B6825
:1003A40003F04003002BF9D0FB7B0133FB73FB7B91
:1003B4007A6813441B78002BE9D100BF00BF1437BF
:1003C400BD465DF8047B704704440040004400408F
:1003D40080B500AF0020FFF7FBFE002302220221BC
:1003E4000020FFF70DFF1B4B1B681A4A43F4E06320
:1003F4001360194B1B68184A43F400331360174BFE
:100404001B68164A43F4D06343F003031360144B90
:100414001B68134A23F400431360114B1B68104AF2
:1004240023F4805313600E4B1B680D4A43F00803FA
:1004340013600B4B1B680A4A43F400531360094BC7
:100444001B68084A23F4405313600748FFF798FFDA
:10045400FEE700BF2000024040380240084400404C
:100464000C440040104400404805000880B400AF2C
:10047400064BD3F88830054A43F47003C2F8883039
:1004840000BFBD465DF8047B704700BF00ED00E08F
:10049400DFF834D00D480E490E4A002302E0D45848
:1004A400C4500433C4188C42F9D30B4A0B4C0023B8
:1004B40001E013600432A242FBD3FFF7D7FF00F040
:1004C40011F8FFF785FF70470000012000000020AD
:1004D400500000205C050008500000206C00002043
:1004E400FEE7000070B50D4D0D4C641BA4100026F2
:1004F400A64209D10B4D0C4C00F018F8641BA41053
:100504000026A64205D170BD55F8043B9847013634
:10051400EEE755F8043B98470136F2E75405000826
:10052400540500085405000858050008F8B500BF34
:10053400F8BC08BC9E467047F8B500BFF8BC08BCC0
:040544009E46704718
:0C05480068656C6C6F20776F726C64004B
:04055400B9010008E1
:040558009501000801
:10055C000000024004000240080002400C0002406F
:10056C001000024014000240180002401C0002401F
:10057C002000024024000240000402400404024017
:10058C00080402400C04024010040240140402400F
:10059C00180402401C0402402004024024040240BF
:040000050800049556
:00000001FF
